:10000000FBEF04F08E0E006E21C001F020C002F064
:10001000036A015209E102C001F0026A080E005EA3
:10002000015202E1006A08D0D89001BE04D0023625
:1000300001360006F9D7019E12002450D8B471D0C1
:10004000006E2850D8B46DD0002604E3810E00263F
:1000500068E204D07F0E005E64E363E025C02CF00C
:1000600029502C1A258E298E27502B02F4CF2EF0E2
:1000700026502A02F4CF03F0F3CF2DF02B02F350D9
:100080002E26F4502D22000E032227502A02F35070
:100090002E26F4502D22000E026A03220222255041
:1000A0002B02F3502D26F4500322000E022225507D
:1000B0002A02F3500326F4500222000E016A0122A4
:1000C00027502902F3502D26F4500322000E02225D
:1000D000012226502902F3500326F4500222000E7A
:1000E000012225502902F3500226F4500122002A51
:1000F00001BE05D02D360336023601360006000E4D
:100100002DAE0AD0032A02220122015005E102503D
:1001100003E1035001E1002A2CBE018E2CAE019EAA
:1001200004D0006A016A026A036A1200800ED8B223
:10013000371A3C6A3D6A33C03BF037503B1A3250A5
:10014000D8B4DCD03A6E006E3650D8B4E0D03A5E07
:10015000D8B481D03DE337C040F0408E38C03FF086
:1001600039C03EF03D6AD89040323F323E323D3297
:100170003A2EF8D73BAE03D03C80DDD03C903A908D
:100180003C88EA6A350EE96EE9D03C983BBE0AD05D
:100190003AA013D040323F323E323D32002AD8B42A
:1001A000C5D00BD040BE0CD0D8903D363E363F3641
:1001B00040360006D8B4BAD0F5D73C8C6BD03C9C06
:1001C00033C03BF033AE02D0408EA9D0409EA7D0C2
:1001D00036C03AF036C000F032503A5E33C040F0DC
:1001E000408E34C03FF035C03EF03D6AD89040327A
:1001F0003F323E323D323A2EF8D73BAE03D03C82FE
:100200009AD03C923A903C8AEA6A390EE96EA6D0BE
:100210003C9A3BBE0AD03AA013D040323F323E3225
:100220003D32002AD8B482D00BD040BE0CD0D8903A
:100230003D363E363F3640360006D8B477D0F5D747
:100240003C8E28D03C9E37C03BF037AE02D0408E6B
:1002500066D0409E64D037C040F0408E38C03FF03A
:1002600039C03EF03BAE04D0409E3C8464D03C9408
:100270003D6A3A90EA6A350EE96E70D03BBE1CD0FA
:1002800033C03BF03AA006D040323F323E323D32DE
:10029000002A4CE03DAE0BD03E2A09E13F2A07E19F
:1002A000402A05E140323F323E32002A3FE03CBC6A
:1002B00086D73CBEC7D71CD0800E401A40AE04D0B3
:1002C0003AD037C03BF00AD033C03BF0405206E191
:1002D0003F5204E13E5202E1006A21D040BE08D004
:1002E000D8903D363E363F364036002EF7D71ED0EA
:1002F0003BAE02D0408E13D0409E11D036C000F0ED
:1003000037C040F038C03FF039C03EF008D032C0AE
:1003100000F033C040F034C03FF035C03EF040C084
:1003200001F03FC002F03EC003F034D0006A016A21
:10033000026A036A2FD03D6A3E1E3F1E401E3D1ECC
:100340003D2A05E13E2A03E13F2A01E1402A3CB073
:1003500015D73CB256D73CB48AD7B3D7EF503E2618
:1003600005E33F2A03E1402AD8B43A80ED52EF502A
:100370003F2603E3402AD8B43A80ED52EF50EFBE57
:1003800001D0800A4026D8B03A803CB8FED63CBAAC
:100390003FD774D7120033C03AF037503A1A3AAE0A
:1003A00005D0D894D89033BED8802FD033C03AF03F
:1003B00036C03BF032503B5E06E03AAE26D0D85015
:1003C000010AD86E22D037C03BF033503B5E06E0C6
:1003D0003AAE1BD0D850010AD86E17D038C03BF0C7
:1003E00034503B5E06E03AAE10D0D850010AD86EC9
:1003F0000CD039C03BF035503B5E06E03AAE05D03C
:10040000D850010AD86E01D0D89012003250D8B41A
:10041000A5D03E6E3650D8B4A1D03E5E05E37F0E27
:100420003E26D8B09BD006D0810E3E5ED8A096D096
:10043000D8B494D03EC000F0016A026A036A3D6AF3
:1004400033C03CF03C8E34C03BF035C03AF0190E5E
:100450003E6E39503A5E0DE2010E3B5E0AE23C5EB2
:1004600008E23D5E06E23D2A3C2A3B2A39503A2604
:1004700028D038503B5E12E2010E3C5E0FE23D5E3A
:100480000DE23D2A3C2A38503B2639503A2619E3E2
:100490003B2A17E13C2A15E13D2A13D03750800949
:1004A0003C5E0EE2010E3D5E0BE23D2A37508009B4
:1004B0003C2638503B26E9E33C2AE7E13D2AE5D7D4
:1004C00003803E2E01D00BD0D8903A363B363C36D6
:1004D0003D36D8900336023601363F36BAD73FA0B4
:1004E00006D0D8900132023203323F3202D00006E9
:1004F00035E03FBE1ED0D8903A363B363C363D36CE
:1005000039503A5E07E2010E3B5E04E23C5E02E2D5
:100510003D5E1AE338503B5E05E2010E3C5E02E2AE
:100520003D5E12E3375080093C5E03E2010E3D5E02
:100530000BE3032A09E1022A07E1012A05E1002A67
:100540000DE001320232033233C03EF037503E1A22
:100550003EAE02D0018E06D0019E04D0006A016A30
:10056000026A036A120027C035F026C034F025C0A5
:1005700033F024C032F0396A386A376A366A0BDFE2
:1005800001E205E1006A016A026A036A70D027C0CD
:100590002BF026C02AF025C029F024C028F0316AAB
:1005A000280E306E30C0E9FF31C0EAFFEF50356AE7
:1005B000346E7F0E3426000E3522D890353034301C
:1005C00031C0EAFF30C0E9FFEF6E2BC02FF02AC028
:1005D0002EF029C02DF028C02CF027C035F026C001
:1005E00034F025C033F024C032F02BC039F02AC0DB
:1005F00038F029C037F028C036F008DFD8922BC079
:1006000035F02AC034F029C033F028C032F003C0DE
:1006100039F002C038F001C037F000C036F086DD96
:1006200003C02BF002C02AF001C029F000C028F05E
:1006300030C0E9FF31C0EAFFEF062FC035F02EC011
:1006400034F02DC033F02CC032F02BC039F02AC06A
:1006500038F029C037F028C036F09DDEB6E12CC056
:1006600000F02DC001F02EC002F02FC003F008EF03
:1006700004F08E0E006E2650005E27C002F028C0E7
:1006800001F0028E005209E0D890025202E10152BC
:1006900004E002320132002EF7D727AE05D0011E4A
:1006A000021E012AD8B4022A1200016A026A006AF4
:1006B000036A235002E1225018E0100E246ED890F5
:1006C00020362136003603362350035C02E12250E7
:1006D000005C07E32250005ED8A003062350035EAF
:1006E000D88001360236242EEAD71200090E235E86
:1006F0000BE3EA6A230EE96ED890EF32EF5004E084
:1007000001D00000EF2EFDD71200146A145001082A
:1007100026E30D0E816E036A2050160FE96E000E5F
:100720000320EA6EEFCF83FF020E226EF80E236ED7
:10073000DDDF222EFBD70E0E816E036A2150160FCD
:10074000E96E000E0320EA6EEFCF83FF020E226EE9
:10075000C60E236ECBDF222EFBD7142AD7D7146AFE
:1007600066EF04F0030EC26E060E006E002EFED77A
:100770000000056AC3CF04F0076AC4CF06F0206A00
:1007800004502024086E05500620096EC26A09C074
:1007900021F008C020F036DCAF0E276E940E266ED6
:1007A000450E256E810E246E03C02BF002C02AF088
:1007B00001C029F000C028F040DC03C023F002C0D3
:1007C00022F001C021F000C020F0D88203C035F033
:1007D00002C034F001C033F000C032F0CD0E396EEB
:1007E000BC0E386E7C0E376E890E366E9FDC03C0F1
:1007F00023F002C022F001C021F000C020F003C0AD
:1008000027F002C026F001C025F000C024F0ABD6CE
:100810006B0E276E820E266E980E256E7D0E246E50
:1008200003C02BF002C02AF001C029F000C028F05C
:1008300004DC03C023F002C022F001C021F000C09C
:1008400020F0EACF25F0E9CF24F0D89203C035F0AC
:1008500002C034F001C033F000C032F0830E396EB4
:10086000C00E386E700E376E830E366E5FDC25C09C
:10087000EAFF24C0E9FF03C029F002C028F001C04C
:1008800027F000C026F0F5DE02C00BF001C00AF030
:100890000B5203E10A50090819E20B5217E10A5002
:1008A000500814E30BC021F00AC020F0236A0A0E9E
:1008B000226EFBDE01C010F010500A0DF3500A5CEE
:1008C000116E10C020F011C021F01FD732EF05F0DB
:1008D000156A1550010826E3070E816E036A205041
:1008E000160FE96E000E0320EA6EEFCF83FF020EB3
:1008F000226EF80E236EFADE222EFBD70B0E816ECF
:10090000036A2150160FE96E000E0320EA6EEFCF46
:1009100083FF020E226EC60E236EE8DE222EFBD768
:10092000152AD7D7156AF9EF04F094928B82060E38
:10093000006E002EFED7000094928B92948082A0CD
:10094000FDD7D76AD66A948082B0FDD7D6500C6E98
:10095000D7CF0DF00DC021F00CC020F002EC00F05C
:1009600003C035F002C034F001C033F000C032F0F3
:10097000710E396E3D0E386E690E376E830E366E0F
:1009800045DD03C023F002C022F001C021F000C009
:1009900020F003C027F002C026F001C025F000C0FF
:1009A00024F02B6A2A6A296A800E286E1DEC00F05A
:1009B00003C029F002C028F001C027F000C026F0D3
:1009C00058DE02C00FF001C00EF00FC021F00EC0C3
:1009D00020F0236A0A0E226E68DE01C012F0125067
:1009E0000A0DF3500E5C136E12C020F013C021F0FC
:1009F0006FD733EF05F0F86AD09E056A046A076A7C
:100A0000066A096A086A0B6A0A6A0D6A0C6A0F6A42
:100A10000E6AC150C00B0F09C16E070EB46E3F0EB7
:100A2000166E060E176E5B0E186E4F0E196E660E62
:100A30001A6E6D0E1B6E7D0E1C6E070E1D6E7F0EE8
:100A40001E6E6F0E1F6E030EC26E3E0EC16E800EC6
:100A5000C06E400ED56E936A956AD76AD66A880EC4
:0A0A6000D56E80D662D7FDD70300E3
:020000040030CA
:0E00000001CC381E0087A1000FC00FE00F409A
:00000001FF
;PIC18F4550
;CRC=2B6F  CREATED="22-Feb-22 19:25"
